{
  "_format": "hh-sol-artifact-1",
  "contractName": "NFTMarketplace",
  "sourceName": "contracts/NFTMarketplace.sol",
  "abi": [
    {
      "inputs": [],
      "stateMutability": "nonpayable",
      "type": "constructor"
    },
    {
      "anonymous": false,
      "inputs": [
        {
          "indexed": true,
          "internalType": "address",
          "name": "owner",
          "type": "address"
        },
        {
          "indexed": true,
          "internalType": "address",
          "name": "approved",
          "type": "address"
        },
        {
          "indexed": true,
          "internalType": "uint256",
          "name": "tokenId",
          "type": "uint256"
        }
      ],
      "name": "Approval",
      "type": "event"
    },
    {
      "anonymous": false,
      "inputs": [
        {
          "indexed": true,
          "internalType": "address",
          "name": "owner",
          "type": "address"
        },
        {
          "indexed": true,
          "internalType": "address",
          "name": "operator",
          "type": "address"
        },
        {
          "indexed": false,
          "internalType": "bool",
          "name": "approved",
          "type": "bool"
        }
      ],
      "name": "ApprovalForAll",
      "type": "event"
    },
    {
      "anonymous": false,
      "inputs": [
        {
          "indexed": true,
          "internalType": "uint256",
          "name": "tokenId",
          "type": "uint256"
        },
        {
          "indexed": false,
          "internalType": "address",
          "name": "owner",
          "type": "address"
        },
        {
          "indexed": false,
          "internalType": "address",
          "name": "seller",
          "type": "address"
        },
        {
          "indexed": false,
          "internalType": "uint256",
          "name": "price",
          "type": "uint256"
        },
        {
          "indexed": false,
          "internalType": "bool",
          "name": "currentlyListed",
          "type": "bool"
        }
      ],
      "name": "TokenListedSuccess",
      "type": "event"
    },
    {
      "anonymous": false,
      "inputs": [
        {
          "indexed": true,
          "internalType": "address",
          "name": "from",
          "type": "address"
        },
        {
          "indexed": true,
          "internalType": "address",
          "name": "to",
          "type": "address"
        },
        {
          "indexed": true,
          "internalType": "uint256",
          "name": "tokenId",
          "type": "uint256"
        }
      ],
      "name": "Transfer",
      "type": "event"
    },
    {
      "inputs": [
        {
          "internalType": "address",
          "name": "to",
          "type": "address"
        },
        {
          "internalType": "uint256",
          "name": "tokenId",
          "type": "uint256"
        }
      ],
      "name": "approve",
      "outputs": [],
      "stateMutability": "nonpayable",
      "type": "function"
    },
    {
      "inputs": [
        {
          "internalType": "address",
          "name": "owner",
          "type": "address"
        }
      ],
      "name": "balanceOf",
      "outputs": [
        {
          "internalType": "uint256",
          "name": "",
          "type": "uint256"
        }
      ],
      "stateMutability": "view",
      "type": "function"
    },
    {
      "inputs": [
        {
          "internalType": "string",
          "name": "tokenURI",
          "type": "string"
        },
        {
          "internalType": "uint256",
          "name": "price",
          "type": "uint256"
        }
      ],
      "name": "createToken",
      "outputs": [
        {
          "internalType": "uint256",
          "name": "",
          "type": "uint256"
        }
      ],
      "stateMutability": "payable",
      "type": "function"
    },
    {
      "inputs": [
        {
          "internalType": "uint256",
          "name": "tokenId",
          "type": "uint256"
        }
      ],
      "name": "executeSale",
      "outputs": [],
      "stateMutability": "payable",
      "type": "function"
    },
    {
      "inputs": [],
      "name": "getAllNFTs",
      "outputs": [
        {
          "components": [
            {
              "internalType": "uint256",
              "name": "tokenId",
              "type": "uint256"
            },
            {
              "internalType": "address payable",
              "name": "owner",
              "type": "address"
            },
            {
              "internalType": "address payable",
              "name": "seller",
              "type": "address"
            },
            {
              "internalType": "uint256",
              "name": "price",
              "type": "uint256"
            },
            {
              "internalType": "bool",
              "name": "currentlyListed",
              "type": "bool"
            }
          ],
          "internalType": "struct NFTMarketplace.ListedToken[]",
          "name": "",
          "type": "tuple[]"
        }
      ],
      "stateMutability": "view",
      "type": "function"
    },
    {
      "inputs": [
        {
          "internalType": "uint256",
          "name": "tokenId",
          "type": "uint256"
        }
      ],
      "name": "getApproved",
      "outputs": [
        {
          "internalType": "address",
          "name": "",
          "type": "address"
        }
      ],
      "stateMutability": "view",
      "type": "function"
    },
    {
      "inputs": [],
      "name": "getCurrentToken",
      "outputs": [
        {
          "internalType": "uint256",
          "name": "",
          "type": "uint256"
        }
      ],
      "stateMutability": "view",
      "type": "function"
    },
    {
      "inputs": [],
      "name": "getLatestIdToListedToken",
      "outputs": [
        {
          "components": [
            {
              "internalType": "uint256",
              "name": "tokenId",
              "type": "uint256"
            },
            {
              "internalType": "address payable",
              "name": "owner",
              "type": "address"
            },
            {
              "internalType": "address payable",
              "name": "seller",
              "type": "address"
            },
            {
              "internalType": "uint256",
              "name": "price",
              "type": "uint256"
            },
            {
              "internalType": "bool",
              "name": "currentlyListed",
              "type": "bool"
            }
          ],
          "internalType": "struct NFTMarketplace.ListedToken",
          "name": "",
          "type": "tuple"
        }
      ],
      "stateMutability": "view",
      "type": "function"
    },
    {
      "inputs": [],
      "name": "getListPrice",
      "outputs": [
        {
          "internalType": "uint256",
          "name": "",
          "type": "uint256"
        }
      ],
      "stateMutability": "view",
      "type": "function"
    },
    {
      "inputs": [
        {
          "internalType": "uint256",
          "name": "tokenId",
          "type": "uint256"
        }
      ],
      "name": "getListedForTokenId",
      "outputs": [
        {
          "components": [
            {
              "internalType": "uint256",
              "name": "tokenId",
              "type": "uint256"
            },
            {
              "internalType": "address payable",
              "name": "owner",
              "type": "address"
            },
            {
              "internalType": "address payable",
              "name": "seller",
              "type": "address"
            },
            {
              "internalType": "uint256",
              "name": "price",
              "type": "uint256"
            },
            {
              "internalType": "bool",
              "name": "currentlyListed",
              "type": "bool"
            }
          ],
          "internalType": "struct NFTMarketplace.ListedToken",
          "name": "",
          "type": "tuple"
        }
      ],
      "stateMutability": "view",
      "type": "function"
    },
    {
      "inputs": [],
      "name": "getMyNFTs",
      "outputs": [
        {
          "components": [
            {
              "internalType": "uint256",
              "name": "tokenId",
              "type": "uint256"
            },
            {
              "internalType": "address payable",
              "name": "owner",
              "type": "address"
            },
            {
              "internalType": "address payable",
              "name": "seller",
              "type": "address"
            },
            {
              "internalType": "uint256",
              "name": "price",
              "type": "uint256"
            },
            {
              "internalType": "bool",
              "name": "currentlyListed",
              "type": "bool"
            }
          ],
          "internalType": "struct NFTMarketplace.ListedToken[]",
          "name": "",
          "type": "tuple[]"
        }
      ],
      "stateMutability": "view",
      "type": "function"
    },
    {
      "inputs": [
        {
          "internalType": "address",
          "name": "owner",
          "type": "address"
        },
        {
          "internalType": "address",
          "name": "operator",
          "type": "address"
        }
      ],
      "name": "isApprovedForAll",
      "outputs": [
        {
          "internalType": "bool",
          "name": "",
          "type": "bool"
        }
      ],
      "stateMutability": "view",
      "type": "function"
    },
    {
      "inputs": [],
      "name": "name",
      "outputs": [
        {
          "internalType": "string",
          "name": "",
          "type": "string"
        }
      ],
      "stateMutability": "view",
      "type": "function"
    },
    {
      "inputs": [
        {
          "internalType": "uint256",
          "name": "tokenId",
          "type": "uint256"
        }
      ],
      "name": "ownerOf",
      "outputs": [
        {
          "internalType": "address",
          "name": "",
          "type": "address"
        }
      ],
      "stateMutability": "view",
      "type": "function"
    },
    {
      "inputs": [
        {
          "internalType": "address",
          "name": "from",
          "type": "address"
        },
        {
          "internalType": "address",
          "name": "to",
          "type": "address"
        },
        {
          "internalType": "uint256",
          "name": "tokenId",
          "type": "uint256"
        }
      ],
      "name": "safeTransferFrom",
      "outputs": [],
      "stateMutability": "nonpayable",
      "type": "function"
    },
    {
      "inputs": [
        {
          "internalType": "address",
          "name": "from",
          "type": "address"
        },
        {
          "internalType": "address",
          "name": "to",
          "type": "address"
        },
        {
          "internalType": "uint256",
          "name": "tokenId",
          "type": "uint256"
        },
        {
          "internalType": "bytes",
          "name": "data",
          "type": "bytes"
        }
      ],
      "name": "safeTransferFrom",
      "outputs": [],
      "stateMutability": "nonpayable",
      "type": "function"
    },
    {
      "inputs": [
        {
          "internalType": "address",
          "name": "operator",
          "type": "address"
        },
        {
          "internalType": "bool",
          "name": "approved",
          "type": "bool"
        }
      ],
      "name": "setApprovalForAll",
      "outputs": [],
      "stateMutability": "nonpayable",
      "type": "function"
    },
    {
      "inputs": [
        {
          "internalType": "bytes4",
          "name": "interfaceId",
          "type": "bytes4"
        }
      ],
      "name": "supportsInterface",
      "outputs": [
        {
          "internalType": "bool",
          "name": "",
          "type": "bool"
        }
      ],
      "stateMutability": "view",
      "type": "function"
    },
    {
      "inputs": [],
      "name": "symbol",
      "outputs": [
        {
          "internalType": "string",
          "name": "",
          "type": "string"
        }
      ],
      "stateMutability": "view",
      "type": "function"
    },
    {
      "inputs": [
        {
          "internalType": "uint256",
          "name": "tokenId",
          "type": "uint256"
        }
      ],
      "name": "tokenURI",
      "outputs": [
        {
          "internalType": "string",
          "name": "",
          "type": "string"
        }
      ],
      "stateMutability": "view",
      "type": "function"
    },
    {
      "inputs": [
        {
          "internalType": "address",
          "name": "from",
          "type": "address"
        },
        {
          "internalType": "address",
          "name": "to",
          "type": "address"
        },
        {
          "internalType": "uint256",
          "name": "tokenId",
          "type": "uint256"
        }
      ],
      "name": "transferFrom",
      "outputs": [],
      "stateMutability": "nonpayable",
      "type": "function"
    },
    {
      "inputs": [
        {
          "internalType": "uint256",
          "name": "_listPrice",
          "type": "uint256"
        }
      ],
      "name": "updateListPrice",
      "outputs": [],
      "stateMutability": "payable",
      "type": "function"
    }
  ],
  "bytecode": "0x608060405266038d7ea4c68000600a553480156200001c57600080fd5b50604080518082018252600e81526d4e46544d61726b6574706c61636560901b6020808301918252835180850190945260048452634e46544d60e01b9084015281519192916200006f91600091620000a0565b50805162000085906001906020840190620000a0565b5050600780546001600160a01b031916331790555062000183565b828054620000ae9062000146565b90600052602060002090601f016020900481019282620000d257600085556200011d565b82601f10620000ed57805160ff19168380011785556200011d565b828001600101855582156200011d579182015b828111156200011d57825182559160200191906001019062000100565b506200012b9291506200012f565b5090565b5b808211156200012b576000815560010162000130565b600181811c908216806200015b57607f821691505b602082108114156200017d57634e487b7160e01b600052602260045260246000fd5b50919050565b61204c80620001936000396000f3fe6080604052600436106101355760003560e01c806395d89b41116100ab578063c322579c1161006f578063c322579c14610354578063c87b56dd14610367578063d1a88ae514610387578063e0391b091461039c578063e985e9c5146103b1578063ef2d1746146103fa57600080fd5b806395d89b41146102bf57806398c3df16146102d45780639b1225c414610301578063a22cb46514610314578063b88d4fde1461033457600080fd5b806342842e0e116100fd57806342842e0e1461020b578063629cb2e41461022b5780636352211e1461024d57806368f1945f1461026d57806370a082311461028c57806372b3b620146102ac57600080fd5b806301ffc9a71461013a57806306fdde031461016f578063081812fc14610191578063095ea7b3146101c957806323b872dd146101eb575b600080fd5b34801561014657600080fd5b5061015a610155366004611c58565b61040f565b60405190151581526020015b60405180910390f35b34801561017b57600080fd5b50610184610461565b6040516101669190611e24565b34801561019d57600080fd5b506101b16101ac366004611ce6565b6104f3565b6040516001600160a01b039091168152602001610166565b3480156101d557600080fd5b506101e96101e4366004611c2f565b61051a565b005b3480156101f757600080fd5b506101e9610206366004611b41565b610635565b34801561021757600080fd5b506101e9610226366004611b41565b610666565b34801561023757600080fd5b50610240610681565b6040516101669190611dd6565b34801561025957600080fd5b506101b1610268366004611ce6565b6108c5565b34801561027957600080fd5b50600a545b604051908152602001610166565b34801561029857600080fd5b5061027e6102a7366004611af5565b610925565b61027e6102ba366004611c90565b6109ab565b3480156102cb57600080fd5b506101846109ed565b3480156102e057600080fd5b506102f46102ef366004611ce6565b6109fc565b6040516101669190611ed7565b6101e961030f366004611ce6565b610a66565b34801561032057600080fd5b506101e961032f366004611bf5565b610bc8565b34801561034057600080fd5b506101e961034f366004611b7c565b610bd7565b6101e9610362366004611ce6565b610c09565b34801561037357600080fd5b50610184610382366004611ce6565b610c78565b34801561039357600080fd5b506102f4610d89565b3480156103a857600080fd5b50610240610e00565b3480156103bd57600080fd5b5061015a6103cc366004611b0f565b6001600160a01b03918216600090815260056020908152604080832093909416825291909152205460ff1690565b34801561040657600080fd5b5061027e610f47565b60006001600160e01b031982166380ac58cd60e01b148061044057506001600160e01b03198216635b5e139f60e01b145b8061045b57506301ffc9a760e01b6001600160e01b03198316145b92915050565b60606000805461047090611f54565b80601f016020809104026020016040519081016040528092919081815260200182805461049c90611f54565b80156104e95780601f106104be576101008083540402835291602001916104e9565b820191906000526020600020905b8154815290600101906020018083116104cc57829003601f168201915b5050505050905090565b60006104fe82610f57565b506000908152600460205260409020546001600160a01b031690565b6000610525826108c5565b9050806001600160a01b0316836001600160a01b031614156105985760405162461bcd60e51b815260206004820152602160248201527f4552433732313a20617070726f76616c20746f2063757272656e74206f776e656044820152603960f91b60648201526084015b60405180910390fd5b336001600160a01b03821614806105b457506105b481336103cc565b6106265760405162461bcd60e51b815260206004820152603e60248201527f4552433732313a20617070726f76652063616c6c6572206973206e6f7420746f60448201527f6b656e206f776e6572206e6f7220617070726f76656420666f7220616c6c0000606482015260840161058f565b6106308383610fb9565b505050565b61063f3382611027565b61065b5760405162461bcd60e51b815260040161058f90611e89565b6106308383836110a5565b61063083838360405180602001604052806000815250610bd7565b6060600061068e60085490565b905060008080805b848110156107265733600b60006106ae846001611ee5565b81526020810191909152604001600020600101546001600160a01b03161480610701575033600b60006106e2846001611ee5565b81526020810191909152604001600020600201546001600160a01b0316145b15610714578361071081611f8f565b9450505b8061071e81611f8f565b915050610696565b5060008367ffffffffffffffff81111561075057634e487b7160e01b600052604160045260246000fd5b60405190808252806020026020018201604052801561078957816020015b61077661199c565b81526020019060019003908161076e5790505b50905060005b858110156108bb5733600b60006107a7846001611ee5565b81526020810191909152604001600020600101546001600160a01b031614806107fa575033600b60006107db846001611ee5565b81526020810191909152604001600020600201546001600160a01b0316145b156108a95761080a816001611ee5565b6000818152600b6020908152604091829020825160a0810184528154815260018201546001600160a01b039081169382019390935260028201549092169282019290925260038201546060820152600482015460ff16151560808201528451929550909184908790811061088e57634e487b7160e01b600052603260045260246000fd5b602002602001018190525084806108a490611f8f565b955050505b806108b381611f8f565b91505061078f565b5095945050505050565b6000818152600260205260408120546001600160a01b03168061045b5760405162461bcd60e51b8152602060048201526018602482015277115490cdcc8c4e881a5b9d985b1a59081d1bdad95b88125160421b604482015260640161058f565b60006001600160a01b03821661098f5760405162461bcd60e51b815260206004820152602960248201527f4552433732313a2061646472657373207a65726f206973206e6f7420612076616044820152683634b21037bbb732b960b91b606482015260840161058f565b506001600160a01b031660009081526003602052604090205490565b60006109bb600880546001019055565b60006109c660085490565b90506109d23382611241565b6109dc818561125b565b6109e681846112f5565b9392505050565b60606001805461047090611f54565b610a0461199c565b506000908152600b6020908152604091829020825160a0810184528154815260018201546001600160a01b03908116938201939093526002820154909216928201929092526003820154606082015260049091015460ff161515608082015290565b6000818152600b6020526040902060038101546002909101546001600160a01b0316348214610afd5760405162461bcd60e51b815260206004820152603f60248201527f506c65617365207375626d6974207468652061736b696e67207072696365206660448201527f6f7220746865204e465420696e206f7264657220746f20707572636861736500606482015260840161058f565b6000838152600b6020526040902060048101805460ff1916600117905560020180546001600160a01b03191633179055610b3b600980546001019055565b610b463033856110a5565b610b50308461051a565b600754600a546040516001600160a01b039092169181156108fc0291906000818181858888f19350505050158015610b8c573d6000803e3d6000fd5b506040516001600160a01b038216903480156108fc02916000818181858888f19350505050158015610bc2573d6000803e3d6000fd5b50505050565b610bd333838361148b565b5050565b610be13383611027565b610bfd5760405162461bcd60e51b815260040161058f90611e89565b610bc28484848461155a565b6007546001600160a01b03163314610c735760405162461bcd60e51b815260206004820152602760248201527f4f6e6c79206f776e65722063616e2075706461746520746865206c697374696e6044820152666720707269636560c81b606482015260840161058f565b600a55565b6060610c8382610f57565b60008281526006602052604081208054610c9c90611f54565b80601f0160208091040260200160405190810160405280929190818152602001828054610cc890611f54565b8015610d155780601f10610cea57610100808354040283529160200191610d15565b820191906000526020600020905b815481529060010190602001808311610cf857829003601f168201915b505050505090506000610d3360408051602081019091526000815290565b9050805160001415610d46575092915050565b815115610d78578082604051602001610d60929190611d6a565b60405160208183030381529060405292505050919050565b610d818461158d565b949350505050565b610d9161199c565b6000610d9c60085490565b6000908152600b6020908152604091829020825160a0810184528154815260018201546001600160a01b03908116938201939093526002820154909216928201929092526003820154606082015260049091015460ff161515608082015292915050565b60606000610e0d60085490565b905060008167ffffffffffffffff811115610e3857634e487b7160e01b600052604160045260246000fd5b604051908082528060200260200182016040528015610e7157816020015b610e5e61199c565b815260200190600190039081610e565790505b509050600080805b84811015610f3d57610e8c816001611ee5565b6000818152600b6020908152604091829020825160a0810184528154815260018201546001600160a01b039081169382019390935260028201549092169282019290925260038201546060820152600482015460ff161515608082015286519294509091869086908110610f1057634e487b7160e01b600052603260045260246000fd5b60200260200101819052508380610f2690611f8f565b945050508080610f3590611f8f565b915050610e79565b5091949350505050565b6000610f5260085490565b905090565b6000818152600260205260409020546001600160a01b0316610fb65760405162461bcd60e51b8152602060048201526018602482015277115490cdcc8c4e881a5b9d985b1a59081d1bdad95b88125160421b604482015260640161058f565b50565b600081815260046020526040902080546001600160a01b0319166001600160a01b0384169081179091558190610fee826108c5565b6001600160a01b03167f8c5be1e5ebec7d5bd14f71427d1e84f3dd0314c0f7b2291e5b200ac8c7c3b92560405160405180910390a45050565b600080611033836108c5565b9050806001600160a01b0316846001600160a01b0316148061107a57506001600160a01b0380821660009081526005602090815260408083209388168352929052205460ff165b80610d815750836001600160a01b0316611093846104f3565b6001600160a01b031614949350505050565b826001600160a01b03166110b8826108c5565b6001600160a01b03161461111c5760405162461bcd60e51b815260206004820152602560248201527f4552433732313a207472616e736665722066726f6d20696e636f72726563742060448201526437bbb732b960d91b606482015260840161058f565b6001600160a01b03821661117e5760405162461bcd60e51b8152602060048201526024808201527f4552433732313a207472616e7366657220746f20746865207a65726f206164646044820152637265737360e01b606482015260840161058f565b611189600082610fb9565b6001600160a01b03831660009081526003602052604081208054600192906111b2908490611f11565b90915550506001600160a01b03821660009081526003602052604081208054600192906111e0908490611ee5565b909155505060008181526002602052604080822080546001600160a01b0319166001600160a01b0386811691821790925591518493918716917fddf252ad1be2c89b69c2b068fc378daa952ba7f163c4a11628f55a4df523b3ef91a4505050565b610bd3828260405180602001604052806000815250611600565b6000828152600260205260409020546001600160a01b03166112d65760405162461bcd60e51b815260206004820152602e60248201527f45524337323155524953746f726167653a2055524920736574206f66206e6f6e60448201526d32bc34b9ba32b73a103a37b5b2b760911b606482015260840161058f565b60008281526006602090815260409091208251610630928401906119ca565b600a5434146113465760405162461bcd60e51b815260206004820152601960248201527f53656e6420656e6f75676820657468657220746f206c69737400000000000000604482015260640161058f565b600081116113a15760405162461bcd60e51b815260206004820152602260248201527f4d616b652073757265207468652070726963652069736e2774206e6567617469604482015261766560f01b606482015260840161058f565b6040805160a081018252838152306020808301828152338486018181526060860188815260016080880181815260008c8152600b9097529890952096518755925193860180546001600160a01b039586166001600160a01b03199182161790915590516002870180549190951691161790925551600384015592516004909201805492151560ff199093169290921790915561143e9190846110a5565b604080513081523360208201529081018290526001606082015282907f9339409317fd01fabff48b703019016f49159bacc801ae872d2ca637d226e4c09060800160405180910390a25050565b816001600160a01b0316836001600160a01b031614156114ed5760405162461bcd60e51b815260206004820152601960248201527f4552433732313a20617070726f766520746f2063616c6c657200000000000000604482015260640161058f565b6001600160a01b03838116600081815260056020908152604080832094871680845294825291829020805460ff191686151590811790915591519182527f17307eab39ab6107e8899845ad3d59bd9653f200f220920489ca2b5937696c31910160405180910390a3505050565b6115658484846110a5565b61157184848484611633565b610bc25760405162461bcd60e51b815260040161058f90611e37565b606061159882610f57565b60006115af60408051602081019091526000815290565b905060008151116115cf57604051806020016040528060008152506109e6565b806115d984611740565b6040516020016115ea929190611d6a565b6040516020818303038152906040529392505050565b61160a838361185a565b6116176000848484611633565b6106305760405162461bcd60e51b815260040161058f90611e37565b60006001600160a01b0384163b1561173557604051630a85bd0160e11b81526001600160a01b0385169063150b7a0290611677903390899088908890600401611d99565b602060405180830381600087803b15801561169157600080fd5b505af19250505080156116c1575060408051601f3d908101601f191682019092526116be91810190611c74565b60015b61171b573d8080156116ef576040519150601f19603f3d011682016040523d82523d6000602084013e6116f4565b606091505b5080516117135760405162461bcd60e51b815260040161058f90611e37565b805181602001fd5b6001600160e01b031916630a85bd0160e11b149050610d81565b506001949350505050565b6060816117645750506040805180820190915260018152600360fc1b602082015290565b8160005b811561178e578061177881611f8f565b91506117879050600a83611efd565b9150611768565b60008167ffffffffffffffff8111156117b757634e487b7160e01b600052604160045260246000fd5b6040519080825280601f01601f1916602001820160405280156117e1576020820181803683370190505b5090505b8415610d81576117f6600183611f11565b9150611803600a86611faa565b61180e906030611ee5565b60f81b81838151811061183157634e487b7160e01b600052603260045260246000fd5b60200101906001600160f81b031916908160001a905350611853600a86611efd565b94506117e5565b6001600160a01b0382166118b05760405162461bcd60e51b815260206004820181905260248201527f4552433732313a206d696e7420746f20746865207a65726f2061646472657373604482015260640161058f565b6000818152600260205260409020546001600160a01b0316156119155760405162461bcd60e51b815260206004820152601c60248201527f4552433732313a20746f6b656e20616c7265616479206d696e74656400000000604482015260640161058f565b6001600160a01b038216600090815260036020526040812080546001929061193e908490611ee5565b909155505060008181526002602052604080822080546001600160a01b0319166001600160a01b03861690811790915590518392907fddf252ad1be2c89b69c2b068fc378daa952ba7f163c4a11628f55a4df523b3ef908290a45050565b6040805160a08101825260008082526020820181905291810182905260608101829052608081019190915290565b8280546119d690611f54565b90600052602060002090601f0160209004810192826119f85760008555611a3e565b82601f10611a1157805160ff1916838001178555611a3e565b82800160010185558215611a3e579182015b82811115611a3e578251825591602001919060010190611a23565b50611a4a929150611a4e565b5090565b5b80821115611a4a5760008155600101611a4f565b600067ffffffffffffffff80841115611a7e57611a7e611fea565b604051601f8501601f19908116603f01168101908282118183101715611aa657611aa6611fea565b81604052809350858152868686011115611abf57600080fd5b858560208301376000602087830101525050509392505050565b80356001600160a01b0381168114611af057600080fd5b919050565b600060208284031215611b06578081fd5b6109e682611ad9565b60008060408385031215611b21578081fd5b611b2a83611ad9565b9150611b3860208401611ad9565b90509250929050565b600080600060608486031215611b55578081fd5b611b5e84611ad9565b9250611b6c60208501611ad9565b9150604084013590509250925092565b60008060008060808587031215611b91578081fd5b611b9a85611ad9565b9350611ba860208601611ad9565b925060408501359150606085013567ffffffffffffffff811115611bca578182fd5b8501601f81018713611bda578182fd5b611be987823560208401611a63565b91505092959194509250565b60008060408385031215611c07578182fd5b611c1083611ad9565b915060208301358015158114611c24578182fd5b809150509250929050565b60008060408385031215611c41578182fd5b611c4a83611ad9565b946020939093013593505050565b600060208284031215611c69578081fd5b81356109e681612000565b600060208284031215611c85578081fd5b81516109e681612000565b60008060408385031215611ca2578182fd5b823567ffffffffffffffff811115611cb8578283fd5b8301601f81018513611cc8578283fd5b611cd785823560208401611a63565b95602094909401359450505050565b600060208284031215611cf7578081fd5b5035919050565b60008151808452611d16816020860160208601611f28565b601f01601f19169290920160200192915050565b805182526020808201516001600160a01b039081169184019190915260408083015190911690830152606080820151908301526080908101511515910152565b60008351611d7c818460208801611f28565b835190830190611d90818360208801611f28565b01949350505050565b6001600160a01b0385811682528416602082015260408101839052608060608201819052600090611dcc90830184611cfe565b9695505050505050565b6020808252825182820181905260009190848201906040850190845b81811015611e1857611e05838551611d2a565b9284019260a09290920191600101611df2565b50909695505050505050565b6020815260006109e66020830184611cfe565b60208082526032908201527f4552433732313a207472616e7366657220746f206e6f6e20455243373231526560408201527131b2b4bb32b91034b6b83632b6b2b73a32b960711b606082015260800190565b6020808252602e908201527f4552433732313a2063616c6c6572206973206e6f7420746f6b656e206f776e6560408201526d1c881b9bdc88185c1c1c9bdd995960921b606082015260800190565b60a0810161045b8284611d2a565b60008219821115611ef857611ef8611fbe565b500190565b600082611f0c57611f0c611fd4565b500490565b600082821015611f2357611f23611fbe565b500390565b60005b83811015611f43578181015183820152602001611f2b565b83811115610bc25750506000910152565b600181811c90821680611f6857607f821691505b60208210811415611f8957634e487b7160e01b600052602260045260246000fd5b50919050565b6000600019821415611fa357611fa3611fbe565b5060010190565b600082611fb957611fb9611fd4565b500690565b634e487b7160e01b600052601160045260246000fd5b634e487b7160e01b600052601260045260246000fd5b634e487b7160e01b600052604160045260246000fd5b6001600160e01b031981168114610fb657600080fdfea264697066735822122062643aa9de06e5f5caf70190764f98b49541bdad58fb34f75b80fd06d04d658d64736f6c63430008040033",
  "linkReferences": {},
  "deployedLinkReferences": {}
}